{
  "contractName": "ConfirmedOwnerWithProposal",
  "abi": [
    {
      "inputs": [
        {
          "internalType": "address",
          "name": "newOwner",
          "type": "address"
        },
        {
          "internalType": "address",
          "name": "pendingOwner",
          "type": "address"
        }
      ],
      "stateMutability": "nonpayable",
      "type": "constructor"
    },
    {
      "anonymous": false,
      "inputs": [
        {
          "indexed": true,
          "internalType": "address",
          "name": "from",
          "type": "address"
        },
        {
          "indexed": true,
          "internalType": "address",
          "name": "to",
          "type": "address"
        }
      ],
      "name": "OwnershipTransferRequested",
      "type": "event"
    },
    {
      "anonymous": false,
      "inputs": [
        {
          "indexed": true,
          "internalType": "address",
          "name": "from",
          "type": "address"
        },
        {
          "indexed": true,
          "internalType": "address",
          "name": "to",
          "type": "address"
        }
      ],
      "name": "OwnershipTransferred",
      "type": "event"
    },
    {
      "inputs": [
        {
          "internalType": "address",
          "name": "to",
          "type": "address"
        }
      ],
      "name": "transferOwnership",
      "outputs": [],
      "stateMutability": "nonpayable",
      "type": "function"
    },
    {
      "inputs": [],
      "name": "acceptOwnership",
      "outputs": [],
      "stateMutability": "nonpayable",
      "type": "function"
    },
    {
      "inputs": [],
      "name": "owner",
      "outputs": [
        {
          "internalType": "address",
          "name": "",
          "type": "address"
        }
      ],
      "stateMutability": "view",
      "type": "function"
    }
  ],
  "bytecode": "0x608060405234801561001057600080fd5b50604051610a53380380610a538339818101604052810190610032919061026f565b600073ffffffffffffffffffffffffffffffffffffffff168273ffffffffffffffffffffffffffffffffffffffff1614156100a2576040517f08c379a0000000000000000000000000000000000000000000000000000000008152600401610099906102f5565b60405180910390fd5b816000806101000a81548173ffffffffffffffffffffffffffffffffffffffff021916908373ffffffffffffffffffffffffffffffffffffffff160217905550600073ffffffffffffffffffffffffffffffffffffffff168173ffffffffffffffffffffffffffffffffffffffff1614610126576101258161012d60201b60201c565b5b50506103e6565b3373ffffffffffffffffffffffffffffffffffffffff168173ffffffffffffffffffffffffffffffffffffffff16141561019c576040517f08c379a000000000000000000000000000000000000000000000000000000000815260040161019390610315565b60405180910390fd5b80600160006101000a81548173ffffffffffffffffffffffffffffffffffffffff021916908373ffffffffffffffffffffffffffffffffffffffff1602179055508073ffffffffffffffffffffffffffffffffffffffff1660008054906101000a900473ffffffffffffffffffffffffffffffffffffffff1673ffffffffffffffffffffffffffffffffffffffff167fed8889f560326eb138920d842192f0eb3dd22b4f139c87a2c57538e05bae127860405160405180910390a350565b600081519050610269816103cf565b92915050565b6000806040838503121561028657610285610378565b5b60006102948582860161025a565b92505060206102a58582860161025a565b9150509250929050565b60006102bc601883610335565b91506102c78261037d565b602082019050919050565b60006102df601783610335565b91506102ea826103a6565b602082019050919050565b6000602082019050818103600083015261030e816102af565b9050919050565b6000602082019050818103600083015261032e816102d2565b9050919050565b600082825260208201905092915050565b600061035182610358565b9050919050565b600073ffffffffffffffffffffffffffffffffffffffff82169050919050565b600080fd5b7f43616e6e6f7420736574206f776e657220746f207a65726f0000000000000000600082015250565b7f43616e6e6f74207472616e7366657220746f2073656c66000000000000000000600082015250565b6103d881610346565b81146103e357600080fd5b50565b61065e806103f56000396000f3fe608060405234801561001057600080fd5b50600436106100415760003560e01c806379ba5097146100465780638da5cb5b14610050578063f2fde38b1461006e575b600080fd5b61004e61008a565b005b61005861021f565b60405161006591906104d3565b60405180910390f35b6100886004803603810190610083919061042e565b610248565b005b600160009054906101000a900473ffffffffffffffffffffffffffffffffffffffff1673ffffffffffffffffffffffffffffffffffffffff163373ffffffffffffffffffffffffffffffffffffffff161461011a576040517f08c379a0000000000000000000000000000000000000000000000000000000008152600401610111906104ee565b60405180910390fd5b60008060009054906101000a900473ffffffffffffffffffffffffffffffffffffffff169050336000806101000a81548173ffffffffffffffffffffffffffffffffffffffff021916908373ffffffffffffffffffffffffffffffffffffffff1602179055506000600160006101000a81548173ffffffffffffffffffffffffffffffffffffffff021916908373ffffffffffffffffffffffffffffffffffffffff1602179055503373ffffffffffffffffffffffffffffffffffffffff168173ffffffffffffffffffffffffffffffffffffffff167f8be0079c531659141344cd1fd0a4f28419497f9722a3daafe3b4186f6b6457e060405160405180910390a350565b60008060009054906101000a900473ffffffffffffffffffffffffffffffffffffffff16905090565b61025061025c565b610259816102ec565b50565b60008054906101000a900473ffffffffffffffffffffffffffffffffffffffff1673ffffffffffffffffffffffffffffffffffffffff163373ffffffffffffffffffffffffffffffffffffffff16146102ea576040517f08c379a00000000000000000000000000000000000000000000000000000000081526004016102e19061050e565b60405180910390fd5b565b3373ffffffffffffffffffffffffffffffffffffffff168173ffffffffffffffffffffffffffffffffffffffff16141561035b576040517f08c379a00000000000000000000000000000000000000000000000000000000081526004016103529061052e565b60405180910390fd5b80600160006101000a81548173ffffffffffffffffffffffffffffffffffffffff021916908373ffffffffffffffffffffffffffffffffffffffff1602179055508073ffffffffffffffffffffffffffffffffffffffff1660008054906101000a900473ffffffffffffffffffffffffffffffffffffffff1673ffffffffffffffffffffffffffffffffffffffff167fed8889f560326eb138920d842192f0eb3dd22b4f139c87a2c57538e05bae127860405160405180910390a350565b60008135905061042881610611565b92915050565b60006020828403121561044457610443610591565b5b600061045284828501610419565b91505092915050565b6104648161055f565b82525050565b600061047760168361054e565b915061048282610596565b602082019050919050565b600061049a60168361054e565b91506104a5826105bf565b602082019050919050565b60006104bd60178361054e565b91506104c8826105e8565b602082019050919050565b60006020820190506104e8600083018461045b565b92915050565b600060208201905081810360008301526105078161046a565b9050919050565b600060208201905081810360008301526105278161048d565b9050919050565b60006020820190508181036000830152610547816104b0565b9050919050565b600082825260208201905092915050565b600061056a82610571565b9050919050565b600073ffffffffffffffffffffffffffffffffffffffff82169050919050565b600080fd5b7f4d7573742062652070726f706f736564206f776e657200000000000000000000600082015250565b7f4f6e6c792063616c6c61626c65206279206f776e657200000000000000000000600082015250565b7f43616e6e6f74207472616e7366657220746f2073656c66000000000000000000600082015250565b61061a8161055f565b811461062557600080fd5b5056fea2646970667358221220191f76cd0d7d3e95716a7c07572499e3c116128af956796ec8fc8811045b517f64736f6c63430008070033",
  "immutableReferences": {},
  "source": "// SPDX-License-Identifier: MIT\npragma solidity ^0.8.0;\n\nimport \"./interfaces/OwnableInterface.sol\";\n\n/**\n * @title The ConfirmedOwner contract\n * @notice A contract with helpers for basic contract ownership.\n */\ncontract ConfirmedOwnerWithProposal is OwnableInterface {\n  address private s_owner;\n  address private s_pendingOwner;\n\n  event OwnershipTransferRequested(address indexed from, address indexed to);\n  event OwnershipTransferred(address indexed from, address indexed to);\n\n  constructor(address newOwner, address pendingOwner) {\n    require(newOwner != address(0), \"Cannot set owner to zero\");\n\n    s_owner = newOwner;\n    if (pendingOwner != address(0)) {\n      _transferOwnership(pendingOwner);\n    }\n  }\n\n  /**\n   * @notice Allows an owner to begin transferring ownership to a new address,\n   * pending.\n   */\n  function transferOwnership(address to) public override onlyOwner {\n    _transferOwnership(to);\n  }\n\n  /**\n   * @notice Allows an ownership transfer to be completed by the recipient.\n   */\n  function acceptOwnership() external override {\n    require(msg.sender == s_pendingOwner, \"Must be proposed owner\");\n\n    address oldOwner = s_owner;\n    s_owner = msg.sender;\n    s_pendingOwner = address(0);\n\n    emit OwnershipTransferred(oldOwner, msg.sender);\n  }\n\n  /**\n   * @notice Get the current owner\n   */\n  function owner() public view override returns (address) {\n    return s_owner;\n  }\n\n  /**\n   * @notice validate, transfer ownership, and emit relevant events\n   */\n  function _transferOwnership(address to) private {\n    require(to != msg.sender, \"Cannot transfer to self\");\n\n    s_pendingOwner = to;\n\n    emit OwnershipTransferRequested(s_owner, to);\n  }\n\n  /**\n   * @notice validate access\n   */\n  function _validateOwnership() internal view {\n    require(msg.sender == s_owner, \"Only callable by owner\");\n  }\n\n  /**\n   * @notice Reverts if called by anyone other than the contract owner.\n   */\n  modifier onlyOwner() {\n    _validateOwnership();\n    _;\n  }\n}\n",
  "sourcePath": "@chainlink/contracts/src/v0.8/ConfirmedOwnerWithProposal.sol",
  "compiler": {
    "name": "solc",
    "version": "0.8.7+commit.e28d00a7.Emscripten.clang"
  },
  "schemaVersion": "3.4.8",
  "updatedAt": "2022-11-05T15:25:01.518Z",
  "devdoc": {
    "kind": "dev",
    "methods": {},
    "title": "The ConfirmedOwner contract",
    "version": 1
  },
  "userdoc": {
    "kind": "user",
    "methods": {
      "acceptOwnership()": {
        "notice": "Allows an ownership transfer to be completed by the recipient."
      },
      "owner()": {
        "notice": "Get the current owner"
      },
      "transferOwnership(address)": {
        "notice": "Allows an owner to begin transferring ownership to a new address, pending."
      }
    },
    "notice": "A contract with helpers for basic contract ownership.",
    "version": 1
  }
}