{
  "contractName": "GetGasPrice",
  "abi": [
    {
      "inputs": [],
      "stateMutability": "nonpayable",
      "type": "constructor"
    },
    {
      "anonymous": false,
      "inputs": [
        {
          "indexed": true,
          "internalType": "bytes32",
          "name": "id",
          "type": "bytes32"
        }
      ],
      "name": "ChainlinkCancelled",
      "type": "event"
    },
    {
      "anonymous": false,
      "inputs": [
        {
          "indexed": true,
          "internalType": "bytes32",
          "name": "id",
          "type": "bytes32"
        }
      ],
      "name": "ChainlinkFulfilled",
      "type": "event"
    },
    {
      "anonymous": false,
      "inputs": [
        {
          "indexed": true,
          "internalType": "bytes32",
          "name": "id",
          "type": "bytes32"
        }
      ],
      "name": "ChainlinkRequested",
      "type": "event"
    },
    {
      "anonymous": false,
      "inputs": [
        {
          "indexed": true,
          "internalType": "address",
          "name": "from",
          "type": "address"
        },
        {
          "indexed": true,
          "internalType": "address",
          "name": "to",
          "type": "address"
        }
      ],
      "name": "OwnershipTransferRequested",
      "type": "event"
    },
    {
      "anonymous": false,
      "inputs": [
        {
          "indexed": true,
          "internalType": "address",
          "name": "from",
          "type": "address"
        },
        {
          "indexed": true,
          "internalType": "address",
          "name": "to",
          "type": "address"
        }
      ],
      "name": "OwnershipTransferred",
      "type": "event"
    },
    {
      "anonymous": false,
      "inputs": [
        {
          "indexed": true,
          "internalType": "bytes32",
          "name": "requestId",
          "type": "bytes32"
        },
        {
          "indexed": false,
          "internalType": "uint256",
          "name": "gasPriceFast",
          "type": "uint256"
        },
        {
          "indexed": false,
          "internalType": "uint256",
          "name": "gasPriceAverage",
          "type": "uint256"
        },
        {
          "indexed": false,
          "internalType": "uint256",
          "name": "gasPriceSafe",
          "type": "uint256"
        }
      ],
      "name": "RequestGasPrice",
      "type": "event"
    },
    {
      "inputs": [],
      "name": "acceptOwnership",
      "outputs": [],
      "stateMutability": "nonpayable",
      "type": "function"
    },
    {
      "inputs": [],
      "name": "gasPriceAverage",
      "outputs": [
        {
          "internalType": "uint256",
          "name": "",
          "type": "uint256"
        }
      ],
      "stateMutability": "view",
      "type": "function",
      "constant": true
    },
    {
      "inputs": [],
      "name": "gasPriceFast",
      "outputs": [
        {
          "internalType": "uint256",
          "name": "",
          "type": "uint256"
        }
      ],
      "stateMutability": "view",
      "type": "function",
      "constant": true
    },
    {
      "inputs": [],
      "name": "gasPriceSafe",
      "outputs": [
        {
          "internalType": "uint256",
          "name": "",
          "type": "uint256"
        }
      ],
      "stateMutability": "view",
      "type": "function",
      "constant": true
    },
    {
      "inputs": [],
      "name": "owner",
      "outputs": [
        {
          "internalType": "address",
          "name": "",
          "type": "address"
        }
      ],
      "stateMutability": "view",
      "type": "function",
      "constant": true
    },
    {
      "inputs": [
        {
          "internalType": "address",
          "name": "to",
          "type": "address"
        }
      ],
      "name": "transferOwnership",
      "outputs": [],
      "stateMutability": "nonpayable",
      "type": "function"
    },
    {
      "inputs": [],
      "name": "requestGasPrice",
      "outputs": [
        {
          "internalType": "bytes32",
          "name": "requestId",
          "type": "bytes32"
        }
      ],
      "stateMutability": "nonpayable",
      "type": "function"
    },
    {
      "inputs": [
        {
          "internalType": "bytes32",
          "name": "_requestId",
          "type": "bytes32"
        },
        {
          "internalType": "uint256",
          "name": "_gasPriceFast",
          "type": "uint256"
        },
        {
          "internalType": "uint256",
          "name": "_gasPriceAverage",
          "type": "uint256"
        },
        {
          "internalType": "uint256",
          "name": "_gasPriceSafe",
          "type": "uint256"
        }
      ],
      "name": "fulfill",
      "outputs": [],
      "stateMutability": "nonpayable",
      "type": "function"
    },
    {
      "inputs": [],
      "name": "withdrawLink",
      "outputs": [],
      "stateMutability": "nonpayable",
      "type": "function"
    }
  ],
  "bytecode": "0x608060405260016004553480156200001657600080fd5b50338060008073ffffffffffffffffffffffffffffffffffffffff168273ffffffffffffffffffffffffffffffffffffffff1614156200008d576040517f08c379a00000000000000000000000000000000000000000000000000000000081526004016200008490620003c2565b60405180910390fd5b81600660006101000a81548173ffffffffffffffffffffffffffffffffffffffff021916908373ffffffffffffffffffffffffffffffffffffffff160217905550600073ffffffffffffffffffffffffffffffffffffffff168173ffffffffffffffffffffffffffffffffffffffff161462000115576200011481620001ba60201b60201c565b5b5050506200013d73326c977e6efc84e512bb9c30f76e30c160ed06fb620002ec60201b60201c565b6200016273cc79157eb46f5624204f47ab42b3906caa40eab76200033060201b60201c565b7f3732323361636264303136353432383238363562363738393234313236303133600b81905550600a670de0b6b3a76400006001620001a291906200044f565b620001ae919062000417565b600c819055506200056a565b3373ffffffffffffffffffffffffffffffffffffffff168173ffffffffffffffffffffffffffffffffffffffff1614156200022c576040517f08c379a00000000000000000000000000000000000000000000000000000000081526004016200022390620003e4565b60405180910390fd5b80600760006101000a81548173ffffffffffffffffffffffffffffffffffffffff021916908373ffffffffffffffffffffffffffffffffffffffff1602179055508073ffffffffffffffffffffffffffffffffffffffff16600660009054906101000a900473ffffffffffffffffffffffffffffffffffffffff1673ffffffffffffffffffffffffffffffffffffffff167fed8889f560326eb138920d842192f0eb3dd22b4f139c87a2c57538e05bae127860405160405180910390a350565b80600260006101000a81548173ffffffffffffffffffffffffffffffffffffffff021916908373ffffffffffffffffffffffffffffffffffffffff16021790555050565b80600360006101000a81548173ffffffffffffffffffffffffffffffffffffffff021916908373ffffffffffffffffffffffffffffffffffffffff16021790555050565b60006200038360188362000406565b9150620003908262000518565b602082019050919050565b6000620003aa60178362000406565b9150620003b78262000541565b602082019050919050565b60006020820190508181036000830152620003dd8162000374565b9050919050565b60006020820190508181036000830152620003ff816200039b565b9050919050565b600082825260208201905092915050565b60006200042482620004b0565b91506200043183620004b0565b925082620004445762000443620004e9565b5b828204905092915050565b60006200045c82620004b0565b91506200046983620004b0565b9250817fffffffffffffffffffffffffffffffffffffffffffffffffffffffffffffffff0483118215151615620004a557620004a4620004ba565b5b828202905092915050565b6000819050919050565b7f4e487b7100000000000000000000000000000000000000000000000000000000600052601160045260246000fd5b7f4e487b7100000000000000000000000000000000000000000000000000000000600052601260045260246000fd5b7f43616e6e6f7420736574206f776e657220746f207a65726f0000000000000000600082015250565b7f43616e6e6f74207472616e7366657220746f2073656c66000000000000000000600082015250565b611635806200057a6000396000f3fe608060405234801561001057600080fd5b50600436106100925760003560e01c80637a92df2d116100665780637a92df2d146100f95780638da5cb5b146101175780638dc654a214610135578063f2fde38b1461013f578063fd97ebd71461015b57610092565b80627f4d881461009757806337db7fae146100b557806349002a91146100d157806379ba5097146100ef575b600080fd5b61009f610179565b6040516100ac91906110b6565b60405180910390f35b6100cf60048036038101906100ca9190610d7a565b6101a4565b005b6100d9610301565b6040516100e69190611191565b60405180910390f35b6100f7610307565b005b61010161049e565b60405161010e9190611191565b60405180910390f35b61011f6104a4565b60405161012c9190610faf565b60405180910390f35b61013d6104ce565b005b61015960048036038101906101549190610d20565b610639565b005b61016361064d565b6040516101709190611191565b60405180910390f35b600080610190600b54306337db7fae60e01b610653565b905061019e81600c54610684565b91505090565b836005600082815260200190815260200160002060009054906101000a900473ffffffffffffffffffffffffffffffffffffffff1673ffffffffffffffffffffffffffffffffffffffff163373ffffffffffffffffffffffffffffffffffffffff1614610246576040517f08c379a000000000000000000000000000000000000000000000000000000000815260040161023d90611171565b60405180910390fd5b6005600082815260200190815260200160002060006101000a81549073ffffffffffffffffffffffffffffffffffffffff0219169055807f7cc135e0cebb02c3480ae5d74d377283180a2601f8f644edf7987b009316c63a60405160405180910390a2847f458cd9a25f5ca29f3c8e905ff5f0063c17307ada260bf1c3481748bc1c2641808585856040516102dd939291906111ac565b60405180910390a2836008819055508260098190555081600a819055505050505050565b60085481565b600760009054906101000a900473ffffffffffffffffffffffffffffffffffffffff1673ffffffffffffffffffffffffffffffffffffffff163373ffffffffffffffffffffffffffffffffffffffff1614610397576040517f08c379a000000000000000000000000000000000000000000000000000000000815260040161038e906110d1565b60405180910390fd5b6000600660009054906101000a900473ffffffffffffffffffffffffffffffffffffffff16905033600660006101000a81548173ffffffffffffffffffffffffffffffffffffffff021916908373ffffffffffffffffffffffffffffffffffffffff1602179055506000600760006101000a81548173ffffffffffffffffffffffffffffffffffffffff021916908373ffffffffffffffffffffffffffffffffffffffff1602179055503373ffffffffffffffffffffffffffffffffffffffff168173ffffffffffffffffffffffffffffffffffffffff167f8be0079c531659141344cd1fd0a4f28419497f9722a3daafe3b4186f6b6457e060405160405180910390a350565b60095481565b6000600660009054906101000a900473ffffffffffffffffffffffffffffffffffffffff16905090565b6104d66106bb565b60006104e061074d565b90508073ffffffffffffffffffffffffffffffffffffffff1663a9059cbb338373ffffffffffffffffffffffffffffffffffffffff166370a08231306040518263ffffffff1660e01b81526004016105389190610faf565b60206040518083038186803b15801561055057600080fd5b505afa158015610564573d6000803e3d6000fd5b505050506040513d601f19601f820116820180604052508101906105889190610de1565b6040518363ffffffff1660e01b81526004016105a5929190610fca565b602060405180830381600087803b1580156105bf57600080fd5b505af11580156105d3573d6000803e3d6000fd5b505050506040513d601f19601f820116820180604052508101906105f79190610d4d565b610636576040517f08c379a000000000000000000000000000000000000000000000000000000000815260040161062d90611131565b60405180910390fd5b50565b6106416106bb565b61064a81610777565b50565b600a5481565b61065b610c30565b610663610c30565b61067a858585846108a6909392919063ffffffff16565b9150509392505050565b60006106b3600360009054906101000a900473ffffffffffffffffffffffffffffffffffffffff168484610956565b905092915050565b600660009054906101000a900473ffffffffffffffffffffffffffffffffffffffff1673ffffffffffffffffffffffffffffffffffffffff163373ffffffffffffffffffffffffffffffffffffffff161461074b576040517f08c379a000000000000000000000000000000000000000000000000000000000815260040161074290611111565b60405180910390fd5b565b6000600260009054906101000a900473ffffffffffffffffffffffffffffffffffffffff16905090565b3373ffffffffffffffffffffffffffffffffffffffff168173ffffffffffffffffffffffffffffffffffffffff1614156107e6576040517f08c379a00000000000000000000000000000000000000000000000000000000081526004016107dd90611151565b60405180910390fd5b80600760006101000a81548173ffffffffffffffffffffffffffffffffffffffff021916908373ffffffffffffffffffffffffffffffffffffffff1602179055508073ffffffffffffffffffffffffffffffffffffffff16600660009054906101000a900473ffffffffffffffffffffffffffffffffffffffff1673ffffffffffffffffffffffffffffffffffffffff167fed8889f560326eb138920d842192f0eb3dd22b4f139c87a2c57538e05bae127860405160405180910390a350565b6108ae610c30565b6108be8560800151610100610a22565b508385600001818152505082856020019073ffffffffffffffffffffffffffffffffffffffff16908173ffffffffffffffffffffffffffffffffffffffff16815250508185604001907bffffffffffffffffffffffffffffffffffffffffffffffffffffffff191690817bffffffffffffffffffffffffffffffffffffffffffffffffffffffff191681525050849050949350505050565b600080600454905060018161096b9190611210565b6004819055506000634042994660e01b60008087600001513089604001518760018c60800151600001516040516024016109ac989796959493929190610ff3565b604051602081830303815290604052907bffffffffffffffffffffffffffffffffffffffffffffffffffffffff19166020820180517bffffffffffffffffffffffffffffffffffffffffffffffffffffffff83818316178352505050509050610a1786838684610a8c565b925050509392505050565b610a2a610c9d565b6000602083610a3991906113af565b14610a6557602082610a4b91906113af565b6020610a579190611266565b82610a629190611210565b91505b81836020018181525050604051808452600081528281016020016040525082905092915050565b60003084604051602001610aa1929190610f83565b604051602081830303815290604052805190602001209050846005600083815260200190815260200160002060006101000a81548173ffffffffffffffffffffffffffffffffffffffff021916908373ffffffffffffffffffffffffffffffffffffffff160217905550807fb5e6e01e79f91267dc17b4e6314d5d4d03593d2ceee0fbb452b750bd70ea5af960405160405180910390a2600260009054906101000a900473ffffffffffffffffffffffffffffffffffffffff1673ffffffffffffffffffffffffffffffffffffffff16634000aea08685856040518463ffffffff1660e01b8152600401610b9793929190611078565b602060405180830381600087803b158015610bb157600080fd5b505af1158015610bc5573d6000803e3d6000fd5b505050506040513d601f19601f82011682018060405250810190610be99190610d4d565b610c28576040517f08c379a0000000000000000000000000000000000000000000000000000000008152600401610c1f906110f1565b60405180910390fd5b949350505050565b6040518060a0016040528060008019168152602001600073ffffffffffffffffffffffffffffffffffffffff16815260200160007bffffffffffffffffffffffffffffffffffffffffffffffffffffffff1916815260200160008152602001610c97610c9d565b81525090565b604051806040016040528060608152602001600081525090565b600081359050610cc6816115a3565b92915050565b600081519050610cdb816115ba565b92915050565b600081359050610cf0816115d1565b92915050565b600081359050610d05816115e8565b92915050565b600081519050610d1a816115e8565b92915050565b600060208284031215610d3657610d3561143e565b5b6000610d4484828501610cb7565b91505092915050565b600060208284031215610d6357610d6261143e565b5b6000610d7184828501610ccc565b91505092915050565b60008060008060808587031215610d9457610d9361143e565b5b6000610da287828801610ce1565b9450506020610db387828801610cf6565b9350506040610dc487828801610cf6565b9250506060610dd587828801610cf6565b91505092959194509250565b600060208284031215610df757610df661143e565b5b6000610e0584828501610d0b565b91505092915050565b610e178161129a565b82525050565b610e26816112b8565b82525050565b610e35816112c2565b82525050565b6000610e46826111e3565b610e5081856111ee565b9350610e6081856020860161134e565b610e6981611443565b840191505092915050565b610e85610e8082611318565b611381565b82525050565b6000610e986016836111ff565b9150610ea382611461565b602082019050919050565b6000610ebb6023836111ff565b9150610ec68261148a565b604082019050919050565b6000610ede6016836111ff565b9150610ee9826114d9565b602082019050919050565b6000610f016012836111ff565b9150610f0c82611502565b602082019050919050565b6000610f246017836111ff565b9150610f2f8261152b565b602082019050919050565b6000610f476028836111ff565b9150610f5282611554565b604082019050919050565b610f668161130e565b82525050565b610f7d610f788261130e565b6113a5565b82525050565b6000610f8f8285610e74565b601482019150610f9f8284610f6c565b6020820191508190509392505050565b6000602082019050610fc46000830184610e0e565b92915050565b6000604082019050610fdf6000830185610e0e565b610fec6020830184610f5d565b9392505050565b600061010082019050611009600083018b610e0e565b611016602083018a610f5d565b6110236040830189610e1d565b6110306060830188610e0e565b61103d6080830187610e2c565b61104a60a0830186610f5d565b61105760c0830185610f5d565b81810360e08301526110698184610e3b565b90509998505050505050505050565b600060608201905061108d6000830186610e0e565b61109a6020830185610f5d565b81810360408301526110ac8184610e3b565b9050949350505050565b60006020820190506110cb6000830184610e1d565b92915050565b600060208201905081810360008301526110ea81610e8b565b9050919050565b6000602082019050818103600083015261110a81610eae565b9050919050565b6000602082019050818103600083015261112a81610ed1565b9050919050565b6000602082019050818103600083015261114a81610ef4565b9050919050565b6000602082019050818103600083015261116a81610f17565b9050919050565b6000602082019050818103600083015261118a81610f3a565b9050919050565b60006020820190506111a66000830184610f5d565b92915050565b60006060820190506111c16000830186610f5d565b6111ce6020830185610f5d565b6111db6040830184610f5d565b949350505050565b600081519050919050565b600082825260208201905092915050565b600082825260208201905092915050565b600061121b8261130e565b91506112268361130e565b9250827fffffffffffffffffffffffffffffffffffffffffffffffffffffffffffffffff0382111561125b5761125a6113e0565b5b828201905092915050565b60006112718261130e565b915061127c8361130e565b92508282101561128f5761128e6113e0565b5b828203905092915050565b60006112a5826112ee565b9050919050565b60008115159050919050565b6000819050919050565b60007fffffffff0000000000000000000000000000000000000000000000000000000082169050919050565b600073ffffffffffffffffffffffffffffffffffffffff82169050919050565b6000819050919050565b60006113238261132a565b9050919050565b60006113358261133c565b9050919050565b6000611347826112ee565b9050919050565b60005b8381101561136c578082015181840152602081019050611351565b8381111561137b576000848401525b50505050565b600061138c82611393565b9050919050565b600061139e82611454565b9050919050565b6000819050919050565b60006113ba8261130e565b91506113c58361130e565b9250826113d5576113d461140f565b5b828206905092915050565b7f4e487b7100000000000000000000000000000000000000000000000000000000600052601160045260246000fd5b7f4e487b7100000000000000000000000000000000000000000000000000000000600052601260045260246000fd5b600080fd5b6000601f19601f8301169050919050565b60008160601b9050919050565b7f4d7573742062652070726f706f736564206f776e657200000000000000000000600082015250565b7f756e61626c6520746f207472616e73666572416e6443616c6c20746f206f726160008201527f636c650000000000000000000000000000000000000000000000000000000000602082015250565b7f4f6e6c792063616c6c61626c65206279206f776e657200000000000000000000600082015250565b7f556e61626c6520746f207472616e736665720000000000000000000000000000600082015250565b7f43616e6e6f74207472616e7366657220746f2073656c66000000000000000000600082015250565b7f536f75726365206d75737420626520746865206f7261636c65206f662074686560008201527f2072657175657374000000000000000000000000000000000000000000000000602082015250565b6115ac8161129a565b81146115b757600080fd5b50565b6115c3816112ac565b81146115ce57600080fd5b50565b6115da816112b8565b81146115e557600080fd5b50565b6115f18161130e565b81146115fc57600080fd5b5056fea2646970667358221220a50ae7f692e5ae704f72e1ed5ee0a41ab0981fdf614959466b2df431b01e2ff364736f6c63430008070033",
  "immutableReferences": {},
  "source": "// SPDX-License-Identifier: MIT\npragma solidity ^0.8.7;\n\nimport '@chainlink/contracts/src/v0.8/ChainlinkClient.sol';\nimport '@chainlink/contracts/src/v0.8/ConfirmedOwner.sol';\n\n/**\n * Request testnet LINK and ETH here: https://faucets.chain.link/\n * Find information on LINK Token Contracts and get the latest ETH and LINK faucets here: https://docs.chain.link/docs/link-token-contracts/\n */\n\n/**\n * THIS IS AN EXAMPLE CONTRACT THAT USES HARDCODED VALUES FOR CLARITY.\n * THIS IS AN EXAMPLE CONTRACT THAT USES UN-AUDITED CODE.\n * DO NOT USE THIS CODE IN PRODUCTION.\n */\n\ncontract GetGasPrice is ChainlinkClient, ConfirmedOwner {\n    using Chainlink for Chainlink.Request;\n\n    uint256 public gasPriceFast;\n    uint256 public gasPriceAverage;\n    uint256 public gasPriceSafe;\n\n    bytes32 private jobId;\n    uint256 private fee;\n\n    event RequestGasPrice(\n        bytes32 indexed requestId,\n        uint256 gasPriceFast,\n        uint256 gasPriceAverage,\n        uint256 gasPriceSafe\n    );\n\n    /**\n     * @notice Initialize the link token and target oracle\n     *\n     * Goerli Testnet details:\n     * Link Token: 0x326C977E6efc84E512bB9C30f76E30c160eD06FB\n     * Oracle: 0xCC79157eb46F5624204f47AB42b3906cAA40eaB7 (Chainlink DevRel)\n     * jobId: 7223acbd01654282865b678924126013\n     *\n     */\n    constructor() ConfirmedOwner(msg.sender) {\n        setChainlinkToken(0x326C977E6efc84E512bB9C30f76E30c160eD06FB);\n        setChainlinkOracle(0xCC79157eb46F5624204f47AB42b3906cAA40eaB7);\n        jobId = '7223acbd01654282865b678924126013';\n        fee = (1 * LINK_DIVISIBILITY) / 10; // 0,1 * 10**18 (Varies by network and job)\n    }\n\n    /**\n     * Create a Chainlink request the gas price from Etherscan\n     */\n    function requestGasPrice() public returns (bytes32 requestId) {\n        Chainlink.Request memory req = buildChainlinkRequest(jobId, address(this), this.fulfill.selector);\n        // No need extra parameters for this job. Send the request\n        return sendChainlinkRequest(req, fee);\n    }\n\n    /**\n     * Receive the responses in the form of uint256\n     */\n    function fulfill(\n        bytes32 _requestId,\n        uint256 _gasPriceFast,\n        uint256 _gasPriceAverage,\n        uint256 _gasPriceSafe\n    ) public recordChainlinkFulfillment(_requestId) {\n        emit RequestGasPrice(_requestId, _gasPriceFast, _gasPriceAverage, _gasPriceSafe);\n        gasPriceFast = _gasPriceFast;\n        gasPriceAverage = _gasPriceAverage;\n        gasPriceSafe = _gasPriceSafe;\n    }\n\n    /**\n     * Allow withdraw of Link tokens from the contract\n     */\n    function withdrawLink() public onlyOwner {\n        LinkTokenInterface link = LinkTokenInterface(chainlinkTokenAddress());\n        require(link.transfer(msg.sender, link.balanceOf(address(this))), 'Unable to transfer');\n    }\n}\n\n",
  "sourcePath": "/Users/veteran/Documents/blockchain/chainlink/contracts/GetGasPrice.sol",
  "compiler": {
    "name": "solc",
    "version": "0.8.7+commit.e28d00a7.Emscripten.clang"
  },
  "schemaVersion": "3.4.8",
  "updatedAt": "2022-11-05T16:03:38.566Z",
  "networkType": "ethereum",
  "devdoc": {
    "kind": "dev",
    "methods": {},
    "version": 1
  },
  "userdoc": {
    "kind": "user",
    "methods": {
      "acceptOwnership()": {
        "notice": "Allows an ownership transfer to be completed by the recipient."
      },
      "constructor": {
        "notice": "Initialize the link token and target oracle Goerli Testnet details: Link Token: 0x326C977E6efc84E512bB9C30f76E30c160eD06FB Oracle: 0xCC79157eb46F5624204f47AB42b3906cAA40eaB7 (Chainlink DevRel) jobId: 7223acbd01654282865b678924126013"
      },
      "fulfill(bytes32,uint256,uint256,uint256)": {
        "notice": "Receive the responses in the form of uint256"
      },
      "owner()": {
        "notice": "Get the current owner"
      },
      "requestGasPrice()": {
        "notice": "Create a Chainlink request the gas price from Etherscan"
      },
      "transferOwnership(address)": {
        "notice": "Allows an owner to begin transferring ownership to a new address, pending."
      },
      "withdrawLink()": {
        "notice": "Allow withdraw of Link tokens from the contract"
      }
    },
    "notice": "THIS IS AN EXAMPLE CONTRACT THAT USES HARDCODED VALUES FOR CLARITY. THIS IS AN EXAMPLE CONTRACT THAT USES UN-AUDITED CODE. DO NOT USE THIS CODE IN PRODUCTION.",
    "version": 1
  }
}